{
  "contractName": "SellTradeContract",
  "abi": [
    {
      "constant": false,
      "inputs": [],
      "name": "getTotalVolume",
      "outputs": [
        {
          "name": "p",
          "type": "uint256"
        },
        {
          "name": "s",
          "type": "uint256"
        }
      ],
      "payable": false,
      "stateMutability": "nonpayable",
      "type": "function"
    },
    {
      "constant": false,
      "inputs": [],
      "name": "getContact",
      "outputs": [
        {
          "name": "c",
          "type": "bytes32"
        }
      ],
      "payable": false,
      "stateMutability": "nonpayable",
      "type": "function"
    },
    {
      "constant": false,
      "inputs": [],
      "name": "getPipe",
      "outputs": [
        {
          "name": "p",
          "type": "bytes32"
        }
      ],
      "payable": false,
      "stateMutability": "nonpayable",
      "type": "function"
    },
    {
      "constant": false,
      "inputs": [],
      "name": "getFirm",
      "outputs": [
        {
          "name": "f",
          "type": "bool"
        }
      ],
      "payable": false,
      "stateMutability": "nonpayable",
      "type": "function"
    },
    {
      "constant": false,
      "inputs": [],
      "name": "getPoint",
      "outputs": [
        {
          "name": "p",
          "type": "bytes32"
        }
      ],
      "payable": false,
      "stateMutability": "nonpayable",
      "type": "function"
    },
    {
      "constant": false,
      "inputs": [],
      "name": "getFixedPrice",
      "outputs": [
        {
          "name": "d",
          "type": "uint256"
        },
        {
          "name": "c",
          "type": "uint256"
        }
      ],
      "payable": false,
      "stateMutability": "nonpayable",
      "type": "function"
    },
    {
      "constant": false,
      "inputs": [],
      "name": "getStartDate",
      "outputs": [
        {
          "name": "m",
          "type": "uint256"
        },
        {
          "name": "d",
          "type": "uint256"
        },
        {
          "name": "y",
          "type": "uint256"
        }
      ],
      "payable": false,
      "stateMutability": "nonpayable",
      "type": "function"
    },
    {
      "constant": false,
      "inputs": [],
      "name": "getTrader",
      "outputs": [
        {
          "name": "t",
          "type": "bytes32"
        }
      ],
      "payable": false,
      "stateMutability": "nonpayable",
      "type": "function"
    },
    {
      "constant": false,
      "inputs": [],
      "name": "getIndex",
      "outputs": [
        {
          "name": "p",
          "type": "uint256"
        },
        {
          "name": "s",
          "type": "uint256"
        }
      ],
      "payable": false,
      "stateMutability": "nonpayable",
      "type": "function"
    },
    {
      "constant": false,
      "inputs": [],
      "name": "getPartyAddress",
      "outputs": [
        {
          "name": "p",
          "type": "address"
        }
      ],
      "payable": false,
      "stateMutability": "nonpayable",
      "type": "function"
    },
    {
      "constant": false,
      "inputs": [],
      "name": "getComments",
      "outputs": [
        {
          "name": "c",
          "type": "bytes32"
        }
      ],
      "payable": false,
      "stateMutability": "nonpayable",
      "type": "function"
    },
    {
      "constant": false,
      "inputs": [],
      "name": "getCounterPartyAddress",
      "outputs": [
        {
          "name": "cp",
          "type": "address"
        }
      ],
      "payable": false,
      "stateMutability": "nonpayable",
      "type": "function"
    },
    {
      "constant": false,
      "inputs": [],
      "name": "getIndexFactor",
      "outputs": [
        {
          "name": "p",
          "type": "uint256"
        },
        {
          "name": "s",
          "type": "uint256"
        }
      ],
      "payable": false,
      "stateMutability": "nonpayable",
      "type": "function"
    },
    {
      "constant": false,
      "inputs": [],
      "name": "getEndDate",
      "outputs": [
        {
          "name": "m",
          "type": "uint256"
        },
        {
          "name": "d",
          "type": "uint256"
        },
        {
          "name": "y",
          "type": "uint256"
        }
      ],
      "payable": false,
      "stateMutability": "nonpayable",
      "type": "function"
    },
    {
      "constant": false,
      "inputs": [],
      "name": "getParty",
      "outputs": [
        {
          "name": "p",
          "type": "bytes32"
        }
      ],
      "payable": false,
      "stateMutability": "nonpayable",
      "type": "function"
    },
    {
      "constant": false,
      "inputs": [],
      "name": "getDealDate",
      "outputs": [
        {
          "name": "m",
          "type": "uint256"
        },
        {
          "name": "d",
          "type": "uint256"
        },
        {
          "name": "y",
          "type": "uint256"
        }
      ],
      "payable": false,
      "stateMutability": "nonpayable",
      "type": "function"
    },
    {
      "constant": false,
      "inputs": [],
      "name": "getVolume",
      "outputs": [
        {
          "name": "p",
          "type": "uint256"
        },
        {
          "name": "s",
          "type": "uint256"
        }
      ],
      "payable": false,
      "stateMutability": "nonpayable",
      "type": "function"
    },
    {
      "constant": false,
      "inputs": [],
      "name": "getCounterParty",
      "outputs": [
        {
          "name": "cp",
          "type": "bytes32"
        }
      ],
      "payable": false,
      "stateMutability": "nonpayable",
      "type": "function"
    },
    {
      "constant": false,
      "inputs": [],
      "name": "getPricingMethod",
      "outputs": [
        {
          "name": "pm",
          "type": "bytes32"
        }
      ],
      "payable": false,
      "stateMutability": "nonpayable",
      "type": "function"
    },
    {
      "constant": false,
      "inputs": [],
      "name": "getTotalPrice",
      "outputs": [
        {
          "name": "d",
          "type": "uint256"
        },
        {
          "name": "c",
          "type": "uint256"
        }
      ],
      "payable": false,
      "stateMutability": "nonpayable",
      "type": "function"
    },
    {
      "constant": false,
      "inputs": [],
      "name": "getEnteredOn",
      "outputs": [
        {
          "name": "m",
          "type": "uint256"
        },
        {
          "name": "d",
          "type": "uint256"
        },
        {
          "name": "y",
          "type": "uint256"
        }
      ],
      "payable": false,
      "stateMutability": "nonpayable",
      "type": "function"
    },
    {
      "inputs": [
        {
          "name": "p",
          "type": "address"
        },
        {
          "name": "cp",
          "type": "address"
        }
      ],
      "payable": false,
      "stateMutability": "nonpayable",
      "type": "constructor"
    },
    {
      "constant": false,
      "inputs": [],
      "name": "acceptTrade",
      "outputs": [],
      "payable": true,
      "stateMutability": "payable",
      "type": "function"
    }
  ],
  "bytecode": "0x606060405234156200001057600080fd5b60405160408062001817833981016040528080519060200190919080519060200190919050508181620000586001620003d0640100000000026200100d176401000000009004565b6200007b6001806001620003ed640100000000026200102a176401000000009004565b6200009e60018060016200040f640100000000026200104c176401000000009004565b620000c1600180600162000432640100000000026200106f176401000000009004565b620001007f7069706500000000000000000000000000000000000000000000000000000000620004556401000000000262001092176401000000009004565b6200013f7f636f756e746572706172747900000000000000000000000000000000000000006200046364010000000002620010a0176401000000009004565b6200015e816200047164010000000002620010ae176401000000009004565b6200019d7f7061727479000000000000000000000000000000000000000000000000000000620004b564010000000002620010f2176401000000009004565b620001bc82620004c36401000000000262001100176401000000009004565b620001fb7f6c65653300000000000000000000000000000000000000000000000000000000620005076401000000000262001144176401000000009004565b6200023a7f70726963696e676d6574686f6400000000000000000000000000000000000000620005156401000000000262001152176401000000009004565b6200025b600180620005236401000000000262001160176401000000009004565b6200027c6001806200053b6401000000000262001178176401000000009004565b620002bb7f706f696e74000000000000000000000000000000000000000000000000000000620005536401000000000262001190176401000000009004565b620002dc60018062000561640100000000026200119e176401000000009004565b620002fd6001806200057964010000000002620011b6176401000000009004565b6200033c7f636f6d6d656e74000000000000000000000000000000000000000000000000006200059164010000000002620011ce176401000000009004565b6200035d6001806200059f64010000000002620011dc176401000000009004565b6200037e600180620005b764010000000002620011f4176401000000009004565b336000806101000a81548173ffffffffffffffffffffffffffffffffffffffff021916908373ffffffffffffffffffffffffffffffffffffffff160217905550505060016023819055505050620005cf565b80600060146101000a81548160ff02191690831515021790555050565b8260016000018190555081600180018190555080600160020181905550505050565b826004600001819055508160046001018190555080600460020181905550505050565b82601a6000018190555081601a6001018190555080601a60020181905550505050565b806007816000191690555050565b806008816000191690555050565b80600960006101000a81548173ffffffffffffffffffffffffffffffffffffffff021916908373ffffffffffffffffffffffffffffffffffffffff16021790555050565b80600a816000191690555050565b80600b60006101000a81548173ffffffffffffffffffffffffffffffffffffffff021916908373ffffffffffffffffffffffffffffffffffffffff16021790555050565b80600c816000191690555050565b80600d816000191690555050565b81600e6000018190555080600e600101819055505050565b81601060000181905550806010600101819055505050565b806014816000191690555050565b81601560000181905550806015600101819055505050565b81601260000181905550806012600101819055505050565b806017816000191690555050565b81601860000181905550806018600101819055505050565b81601d6000018190555080601d600101819055505050565b61123880620005df6000396000f300606060405260043610610128576000357c0100000000000000000000000000000000000000000000000000000000900463ffffffff1680630b9d98e91461012d5780631db10fba1461015d5780633b46c03a1461018e5780635a32acda146101bf5780635bea9faa146101ec57806368af313c1461021d57806378f305c61461024d5780637df493001461028457806381045ead146102b55780638995bc2e146102e557806391f3410c1461033a5780639c8940661461036b578063abb9fa39146103c0578063b1356488146103f0578063b4caa93314610427578063b528d00e14610458578063c67bbc241461048f578063ea3b6e4c146104bf578063ebf22959146104f0578063f475409f14610521578063f72d4e0d14610551578063fa4cbc4114610588575b600080fd5b341561013857600080fd5b610140610592565b604051808381526020018281526020019250505060405180910390f35b341561016857600080fd5b610170610604565b60405180826000191660001916815260200191505060405180910390f35b341561019957600080fd5b6101a1610669565b60405180826000191660001916815260200191505060405180910390f35b34156101ca57600080fd5b6101d26106ce565b604051808215151515815260200191505060405180910390f35b34156101f757600080fd5b6101ff610740565b60405180826000191660001916815260200191505060405180910390f35b341561022857600080fd5b6102306107a5565b604051808381526020018281526020019250505060405180910390f35b341561025857600080fd5b610260610817565b60405180848152602001838152602001828152602001935050505060405180910390f35b341561028f57600080fd5b610297610893565b60405180826000191660001916815260200191505060405180910390f35b34156102c057600080fd5b6102c86108f8565b604051808381526020018281526020019250505060405180910390f35b34156102f057600080fd5b6102f861096a565b604051808273ffffffffffffffffffffffffffffffffffffffff1673ffffffffffffffffffffffffffffffffffffffff16815260200191505060405180910390f35b341561034557600080fd5b61034d6109ef565b60405180826000191660001916815260200191505060405180910390f35b341561037657600080fd5b61037e610a54565b604051808273ffffffffffffffffffffffffffffffffffffffff1673ffffffffffffffffffffffffffffffffffffffff16815260200191505060405180910390f35b34156103cb57600080fd5b6103d3610ad9565b604051808381526020018281526020019250505060405180910390f35b34156103fb57600080fd5b610403610b4b565b60405180848152602001838152602001828152602001935050505060405180910390f35b341561043257600080fd5b61043a610bc8565b60405180826000191660001916815260200191505060405180910390f35b341561046357600080fd5b61046b610c2d565b60405180848152602001838152602001828152602001935050505060405180910390f35b341561049a57600080fd5b6104a2610caa565b604051808381526020018281526020019250505060405180910390f35b34156104ca57600080fd5b6104d2610d1c565b60405180826000191660001916815260200191505060405180910390f35b34156104fb57600080fd5b610503610d81565b60405180826000191660001916815260200191505060405180910390f35b341561052c57600080fd5b610534610de6565b604051808381526020018281526020019250505060405180910390f35b341561055c57600080fd5b610564610e58565b60405180848152602001838152602001828152602001935050505060405180910390f35b610590610ed5565b005b6000806000809054906101000a900473ffffffffffffffffffffffffffffffffffffffff1673ffffffffffffffffffffffffffffffffffffffff163373ffffffffffffffffffffffffffffffffffffffff161415156105f057600080fd5b601860000154915060186001015490509091565b60008060009054906101000a900473ffffffffffffffffffffffffffffffffffffffff1673ffffffffffffffffffffffffffffffffffffffff163373ffffffffffffffffffffffffffffffffffffffff1614151561066157600080fd5b600c54905090565b60008060009054906101000a900473ffffffffffffffffffffffffffffffffffffffff1673ffffffffffffffffffffffffffffffffffffffff163373ffffffffffffffffffffffffffffffffffffffff161415156106c657600080fd5b600754905090565b60008060009054906101000a900473ffffffffffffffffffffffffffffffffffffffff1673ffffffffffffffffffffffffffffffffffffffff163373ffffffffffffffffffffffffffffffffffffffff1614151561072b57600080fd5b600060149054906101000a900460ff16905090565b60008060009054906101000a900473ffffffffffffffffffffffffffffffffffffffff1673ffffffffffffffffffffffffffffffffffffffff163373ffffffffffffffffffffffffffffffffffffffff1614151561079d57600080fd5b601454905090565b6000806000809054906101000a900473ffffffffffffffffffffffffffffffffffffffff1673ffffffffffffffffffffffffffffffffffffffff163373ffffffffffffffffffffffffffffffffffffffff1614151561080357600080fd5b601260000154915060126001015490509091565b60008060008060009054906101000a900473ffffffffffffffffffffffffffffffffffffffff1673ffffffffffffffffffffffffffffffffffffffff163373ffffffffffffffffffffffffffffffffffffffff1614151561087757600080fd5b6001600001549250600180015491506001600201549050909192565b60008060009054906101000a900473ffffffffffffffffffffffffffffffffffffffff1673ffffffffffffffffffffffffffffffffffffffff163373ffffffffffffffffffffffffffffffffffffffff161415156108f057600080fd5b601f54905090565b6000806000809054906101000a900473ffffffffffffffffffffffffffffffffffffffff1673ffffffffffffffffffffffffffffffffffffffff163373ffffffffffffffffffffffffffffffffffffffff1614151561095657600080fd5b600e600001549150600e6001015490509091565b60008060009054906101000a900473ffffffffffffffffffffffffffffffffffffffff1673ffffffffffffffffffffffffffffffffffffffff163373ffffffffffffffffffffffffffffffffffffffff161415156109c757600080fd5b600b60009054906101000a900473ffffffffffffffffffffffffffffffffffffffff16905090565b60008060009054906101000a900473ffffffffffffffffffffffffffffffffffffffff1673ffffffffffffffffffffffffffffffffffffffff163373ffffffffffffffffffffffffffffffffffffffff16141515610a4c57600080fd5b601754905090565b60008060009054906101000a900473ffffffffffffffffffffffffffffffffffffffff1673ffffffffffffffffffffffffffffffffffffffff163373ffffffffffffffffffffffffffffffffffffffff16141515610ab157600080fd5b600960009054906101000a900473ffffffffffffffffffffffffffffffffffffffff16905090565b6000806000809054906101000a900473ffffffffffffffffffffffffffffffffffffffff1673ffffffffffffffffffffffffffffffffffffffff163373ffffffffffffffffffffffffffffffffffffffff16141515610b3757600080fd5b601060000154915060106001015490509091565b60008060008060009054906101000a900473ffffffffffffffffffffffffffffffffffffffff1673ffffffffffffffffffffffffffffffffffffffff163373ffffffffffffffffffffffffffffffffffffffff16141515610bab57600080fd5b600460000154925060046001015491506004600201549050909192565b60008060009054906101000a900473ffffffffffffffffffffffffffffffffffffffff1673ffffffffffffffffffffffffffffffffffffffff163373ffffffffffffffffffffffffffffffffffffffff16141515610c2557600080fd5b600a54905090565b60008060008060009054906101000a900473ffffffffffffffffffffffffffffffffffffffff1673ffffffffffffffffffffffffffffffffffffffff163373ffffffffffffffffffffffffffffffffffffffff16141515610c8d57600080fd5b601a600001549250601a600101549150601a600201549050909192565b6000806000809054906101000a900473ffffffffffffffffffffffffffffffffffffffff1673ffffffffffffffffffffffffffffffffffffffff163373ffffffffffffffffffffffffffffffffffffffff16141515610d0857600080fd5b601560000154915060156001015490509091565b60008060009054906101000a900473ffffffffffffffffffffffffffffffffffffffff1673ffffffffffffffffffffffffffffffffffffffff163373ffffffffffffffffffffffffffffffffffffffff16141515610d7957600080fd5b600854905090565b60008060009054906101000a900473ffffffffffffffffffffffffffffffffffffffff1673ffffffffffffffffffffffffffffffffffffffff163373ffffffffffffffffffffffffffffffffffffffff16141515610dde57600080fd5b600d54905090565b6000806000809054906101000a900473ffffffffffffffffffffffffffffffffffffffff1673ffffffffffffffffffffffffffffffffffffffff163373ffffffffffffffffffffffffffffffffffffffff16141515610e4457600080fd5b601d600001549150601d6001015490509091565b60008060008060009054906101000a900473ffffffffffffffffffffffffffffffffffffffff1673ffffffffffffffffffffffffffffffffffffffff163373ffffffffffffffffffffffffffffffffffffffff16141515610eb857600080fd5b602060000154925060206001015491506020600201549050909192565b600080600960009054906101000a900473ffffffffffffffffffffffffffffffffffffffff1673ffffffffffffffffffffffffffffffffffffffff163373ffffffffffffffffffffffffffffffffffffffff16141515610f3457600080fd5b6000809054906101000a900473ffffffffffffffffffffffffffffffffffffffff1691508190508073ffffffffffffffffffffffffffffffffffffffff16633b0145306040518163ffffffff167c0100000000000000000000000000000000000000000000000000000000028152600401600060405180830381600087803b1515610fbe57600080fd5b6102c65a03f11515610fcf57600080fd5b505050600b60009054906101000a900473ffffffffffffffffffffffffffffffffffffffff1673ffffffffffffffffffffffffffffffffffffffff16ff5b80600060146101000a81548160ff02191690831515021790555050565b8260016000018190555081600180018190555080600160020181905550505050565b826004600001819055508160046001018190555080600460020181905550505050565b82601a6000018190555081601a6001018190555080601a60020181905550505050565b806007816000191690555050565b806008816000191690555050565b80600960006101000a81548173ffffffffffffffffffffffffffffffffffffffff021916908373ffffffffffffffffffffffffffffffffffffffff16021790555050565b80600a816000191690555050565b80600b60006101000a81548173ffffffffffffffffffffffffffffffffffffffff021916908373ffffffffffffffffffffffffffffffffffffffff16021790555050565b80600c816000191690555050565b80600d816000191690555050565b81600e6000018190555080600e600101819055505050565b81601060000181905550806010600101819055505050565b806014816000191690555050565b81601560000181905550806015600101819055505050565b81601260000181905550806012600101819055505050565b806017816000191690555050565b81601860000181905550806018600101819055505050565b81601d6000018190555080601d6001018190555050505600a165627a7a72305820fbaf4022881197887d404062a401a4e499739c99fdda903423a7f8bfa6f954a20029",
  "source": "pragma solidity ^0.4.4;\r\n//Copyright © 2018 David Ramirez\r\n\r\nimport \"./AbstractTrade.sol\";\r\n\r\n\r\n/*---------------------------------------------------------------------\r\n                           Main Contract \r\n-----------------------------------------------------------------------*/\r\ncontract CurrentC {\r\n\r\n  address private owner;\r\n  address[] private tradeHistory;\r\n  address[] private acceptedTradeHistory;\r\n  uint private  historyTracker;\r\n  uint private acceptedHistoryTracker;\r\n\r\n  //constructor: initializes number of trades for history to 0 and makes the address who deployed contract the owner\r\n  function CurrentC() {\r\n    historyTracker = 0;\r\n    acceptedHistoryTracker = 0;\r\n    owner = msg.sender;\r\n  }\r\n\r\n  //turns the contract into read only\r\n  function terminateContract() {\r\n    require(msg.sender == owner);\r\n    selfdestruct(owner);\r\n  }\r\n\r\n  //converts bytes32 type to string, used to read bytes32 type\r\n  function bytes32ToString(bytes32 x) private constant returns (string) {\r\n    bytes memory bytesString = new bytes(32);\r\n    uint charCount = 0;\r\n    for (uint j = 0; j < 32; j++) {\r\n        byte char = byte(bytes32(uint(x) * 2 ** (8 * j)));\r\n        if (char != 0) {\r\n            bytesString[charCount] = char;\r\n            charCount++;\r\n        }\r\n    }\r\n    bytes memory bytesStringTrimmed = new bytes(charCount);\r\n    for (j = 0; j < charCount; j++) {\r\n        bytesStringTrimmed[j] = bytesString[j];\r\n    }\r\n    return string(bytesStringTrimmed);\r\n  }\r\n\r\n  //function for comparing strings\r\n  function compareStrings (string a, string b) returns (bool){\r\n       return keccak256(a) == keccak256(b);\r\n  }\r\n\r\n  //makes a purchase trade contract between 2 parties and adds to trade history\r\n  function makePurchaseTrade(address receiver) payable returns(address tradeContractAddress) {\r\n    require(msg.sender == owner);\r\n    address newDeploy =  new PurchaseTradeContract(owner, receiver);//tradeHistory[tradeNum - 1];\r\n    tradeHistory.push(newDeploy);\r\n    historyTracker += 1;\r\n    return newDeploy;\r\n  }\r\n\r\n  //makes a sell trade contract between 2 parties and adds to trade history\r\n  function makeSellTrade(address receiver) returns(address tradeContractAddress) {\r\n    require(msg.sender == owner);\r\n    address newDeploy =  new SellTradeContract(owner, receiver);//tradeHistory[tradeNum - 1];\r\n    tradeHistory.push(newDeploy);\r\n    historyTracker += 1;\r\n    return newDeploy;\r\n  }\r\n\r\n\r\n  //adds trade to acceptedTradeHistory array, making it accepted by both parties (must be called by a tradeContract\r\n  //in the tradeHistory array)\r\n  function acceptTradeMain() {\r\n    uint tradeCheck = 0;\r\n    uint i = 0;\r\n\r\n    //see if trade address is in trade history address array\r\n    for (i; i < historyTracker;i++) {\r\n      if (msg.sender == tradeHistory[i]) {\r\n        tradeCheck = 1;\r\n      }\r\n    }\r\n\r\n    //require the trade address to be in the array of stored trade addresses\r\n    require(tradeCheck == 1);\r\n\r\n    //add the calling accepting trade contract to the acceptedTradeHistory array, thus considering it\r\n    //accepted by both parties (can only happen if counterparty accepts trade via TradeContract, and \r\n    //the TradeContract must be the one calling this function\r\n    acceptedTradeHistory[acceptedHistoryTracker] = msg.sender;\r\n    acceptedHistoryTracker++;\r\n  }\r\n\r\n  //returns address of owner of main CCC contract\r\n  function getOwner() returns (address o) {\r\n    o = owner;\r\n  }\r\n  \r\n  //returns current trade num for main contract (ie. the number of trades created (not nec accepted) with main contract)\r\n  function getTradeIndex() returns (uint tn) {\r\n    require(msg.sender == owner);\r\n    tn = historyTracker;\r\n  }\r\n\r\n  //return address of trade contract at trade history index given \r\n  function getHistory(uint index) returns (address t) {\r\n    require(msg.sender == owner);\r\n    if (index <= (historyTracker - 1)) {\r\n      t = tradeHistory[index];\r\n    }\r\n  }\r\n\r\n  /***********************************************************************************************************************\r\n  *  The following 2 functions return the entire history array and the accepted history array (addresses)                *                                                            *\r\n  ************************************************************************************************************************/\r\n  //return address array for all initiated trades\r\n  function getHistoryList() returns (address[]) {\r\n    require(msg.sender == owner);\r\n    return tradeHistory;\r\n  }\r\n\r\n  //return address array for all accepted trades\r\n  function getAcceptedHistoryList() returns (address[]) {\r\n    require(msg.sender == owner);\r\n    return acceptedTradeHistory;\r\n  }\r\n\r\n  /***********************************************************************************************************************\r\n  *  All of the following \"searchBy\" functions search each trade (not just accepted) for input parameter and return      *\r\n  *  all the matching Trade Contracts' addresses in an array                                                             *\r\n  ************************************************************************************************************************/\r\n  //returns array of Trade Contract addresses that have start date matching function parameters\r\n  function searchByStartDate(uint m, uint d, uint y) returns (address[]) {\r\n     require(msg.sender == owner);\r\n     address[] found;\r\n     uint m1;\r\n     uint d1;\r\n     uint y1;\r\n     uint i = 0;\r\n     uint k = 0;\r\n     for (i; i < historyTracker; i++) {\r\n       (m1, d1, y1) = getTradeStartDateInfo(i);\r\n       if (m1 == m && d1 == d && y1 == y) {\r\n         found[k] = tradeHistory[i];\r\n         k++;\r\n       }\r\n     }\r\n\r\n    return found;\r\n  }\r\n\r\n  //returns array of Trade Contract addresses that have deal date matching function parameters\r\n  function searchByDealDate(uint m, uint d, uint y) returns (address[]) {\r\n     require(msg.sender == owner);\r\n     address[] found;\r\n     uint m1;\r\n     uint d1;\r\n     uint y1;\r\n     uint i = 0;\r\n     uint k = 0;\r\n     for (i; i < historyTracker; i++) {\r\n       (m1, d1, y1) = getTradeDealDateInfo(i);\r\n       if (m1 == m && d1 == d && y1 == y) {\r\n         found[k] = tradeHistory[i];\r\n         k++;\r\n       }\r\n     }\r\n\r\n    return found;\r\n  }\r\n\r\n  //returns array of Trade Contract addresses that have party matching function parameters\r\n  function searchByParty(string p) returns (address[]) {\r\n     require(msg.sender == owner);\r\n     address[] found;\r\n     string memory pt;\r\n     uint i = 0;\r\n     uint k = 0;\r\n     for (i; i < historyTracker; i++) {\r\n       pt = getTradePartyInfo(i);\r\n       if (compareStrings(p,pt) == true) {\r\n         found[k] = tradeHistory[i];\r\n         k++;\r\n       }\r\n     }\r\n\r\n    return found;\r\n  }\r\n\r\n  //returns array of Trade Contract addresses that have counterparty matching function parameters\r\n  function searchByCounterParty(string cp) returns (address[]) {\r\n     require(msg.sender == owner);\r\n     address[] memory found;\r\n     string memory cpt;\r\n     uint i = 0;\r\n     uint k = 0;\r\n     for (i; i < historyTracker; i++) {\r\n       cpt = getTradeCounterPartyInfo(i);\r\n       if (compareStrings(cp,cpt) == true) {\r\n         found[k] = tradeHistory[i];\r\n         k++;\r\n       }\r\n     }\r\n\r\n    return found;\r\n  }\r\n\r\n  //returns array of Trade Contract addresses that have counterparty matching function parameters\r\n  function searchByContact(string c) returns (address[]) {\r\n     require(msg.sender == owner);\r\n     address[] memory found;\r\n     string memory ct;\r\n     uint i = 0;\r\n     uint k = 0;\r\n     for (i; i < historyTracker; i++) {\r\n       ct = getTradeContactInfo(i);\r\n       if (compareStrings(c,ct) == true) {\r\n         found[k] = tradeHistory[i];\r\n         k++;\r\n       }\r\n     }\r\n\r\n    return found;\r\n  }\r\n\r\n  /***********************************************************************************************************************\r\n  *  All following \"getTrade\" functions return the info in readable form from the trade contract, these are needed to     *\r\n  *  convert from bytes32 to string (ie. to read the info)                                                                *\r\n  *************************************************************************************************************************/\r\n\r\n  //returns the string \"Firm\" if trade is firm, \"Non-Firm\" if not\r\n  function getTradeFirmInfo(uint index) private returns (string f) {\r\n    address tradeAddress = tradeHistory[index]; \r\n    AbstractTrade tradecontract = AbstractTrade(tradeAddress);\r\n\r\n    bool firm = tradecontract.getFirm();\r\n    \r\n    if (firm == true) {\r\n      f = \"Firm\";\r\n    } else if (firm == false) {\r\n      f = \"Non-Firm\";\r\n    }\r\n  }\r\n\r\n  //returns month, day, and year (all uint) representing trade contract start date\r\n  function getTradeStartDateInfo(uint index) private returns (uint m, uint d, uint y) {\r\n    address tradeAddress = tradeHistory[index]; \r\n    AbstractTrade tradecontract = AbstractTrade(tradeAddress);\r\n\r\n    (m,d,y) = tradecontract.getStartDate();\r\n  }\r\n\r\n    //returns month, day, and year (all uint) representing trade contract end date\r\n  function getTradeEndDateInfo(uint index)  private returns (uint m, uint d, uint y) {\r\n    address tradeAddress = tradeHistory[index]; \r\n    AbstractTrade tradecontract = AbstractTrade(tradeAddress);\r\n\r\n    (m,d,y) = tradecontract.getEndDate();\r\n  }\r\n\r\n  //returns the pipe of the trade at given index\r\n  function getTradePipeInfo(uint index) private returns (string p) {\r\n    address tradeAddress = tradeHistory[index]; \r\n    AbstractTrade tradecontract = AbstractTrade(tradeAddress);\r\n\r\n    bytes32 pipe = tradecontract.getPipe();\r\n    p = bytes32ToString(pipe);\r\n  }\r\n\r\n  //returns the counterparty of the trade at given index\r\n  function getTradeCounterPartyInfo(uint index) private returns (string cp) {\r\n    address tradeAddress = tradeHistory[index]; \r\n    AbstractTrade tradecontract = AbstractTrade(tradeAddress);\r\n\r\n    bytes32 counterParty = tradecontract.getCounterParty();\r\n    cp = bytes32ToString(counterParty);\r\n  }\r\n\r\n  //returns the counterparty address of the trade at given index\r\n  function getTradeCounterPartyAddressInfo(uint index) private returns (address cpa) {\r\n    address tradeAddress = tradeHistory[index]; \r\n    AbstractTrade tradecontract = AbstractTrade(tradeAddress);\r\n\r\n    address counterPartyAddress = tradecontract.getCounterPartyAddress();\r\n    cpa = counterPartyAddress;\r\n  }\r\n\r\n  //returns the party of the trade at given index\r\n  function getTradePartyInfo(uint index) private returns (string p) {\r\n    address tradeAddress = tradeHistory[index]; \r\n    AbstractTrade tradecontract = AbstractTrade(tradeAddress);\r\n\r\n    bytes32 party = tradecontract.getParty();\r\n    p = bytes32ToString(party);\r\n  }\r\n\r\n  //returns the counter party address of the trade at given index\r\n  function getTradePartyAddressInfo(uint index) private returns (address pa) {\r\n    address tradeAddress = tradeHistory[index]; \r\n    AbstractTrade tradecontract = AbstractTrade(tradeAddress);\r\n\r\n    address partyAddress = tradecontract.getPartyAddress();\r\n    pa = partyAddress;\r\n  }\r\n\r\n  //returns the contact of the trade at given index\r\n  function getTradeContactInfo(uint index) private returns (string c) {\r\n    address tradeAddress = tradeHistory[index]; \r\n    AbstractTrade tradecontract = AbstractTrade(tradeAddress);\r\n\r\n    bytes32 contact = tradecontract.getContact();\r\n    c = bytes32ToString(contact);\r\n  }\r\n\r\n  //returns the pricing method of the trade at given index\r\n  function getTradePricingMethodInfo(uint index) private returns (string pm) {\r\n    address tradeAddress = tradeHistory[index]; \r\n    AbstractTrade tradecontract = AbstractTrade(tradeAddress);\r\n\r\n    bytes32 pricingMethod = tradecontract.getPricingMethod();\r\n    pm = bytes32ToString(pricingMethod);\r\n  }\r\n\r\n  //returns the trade index of the trade at given index\r\n  function getTradeIndexInfo(uint index) private returns (uint p, uint s) {\r\n    address tradeAddress = tradeHistory[index]; \r\n    AbstractTrade tradecontract = AbstractTrade(tradeAddress);\r\n\r\n    (p,s) = tradecontract.getIndex();\r\n  }\r\n\r\n  //returns the trade index of the trade at given index\r\n  function getTradeIndexFactorInfo(uint index) private returns (uint p, uint s) {\r\n    address tradeAddress = tradeHistory[index]; \r\n    AbstractTrade tradecontract = AbstractTrade(tradeAddress);\r\n\r\n    (p,s) = tradecontract.getIndexFactor();\r\n  }\r\n\r\n  //returns thefixed price of the trade at given index\r\n  function getTradeFixedPriceInfo(uint index) private returns (uint d, uint c) {\r\n    address tradeAddress = tradeHistory[index]; \r\n    AbstractTrade tradecontract = AbstractTrade(tradeAddress);\r\n\r\n    (d,c) = tradecontract.getFixedPrice();\r\n  }\r\n\r\n  //returns the point of the trade at given index\r\n  function getTradePointInfo(uint index) private returns (string p) {\r\n    address tradeAddress = tradeHistory[index]; \r\n    AbstractTrade tradecontract = AbstractTrade(tradeAddress);\r\n\r\n    bytes32 point = tradecontract.getPoint();\r\n    p = bytes32ToString(point);\r\n  }\r\n\r\n  //returns the volume of the trade at given index\r\n  function getTradeVolumeInfo(uint index) private returns (uint d, uint c) {\r\n    address tradeAddress = tradeHistory[index]; \r\n    AbstractTrade tradecontract = AbstractTrade(tradeAddress);\r\n\r\n    (d,c) = tradecontract.getVolume();\r\n  }\r\n\r\n  //returns the comments of the trade at given index\r\n  function getTradeComments(uint index) private returns (string c) {\r\n    address tradeAddress = tradeHistory[index]; \r\n    AbstractTrade tradecontract = AbstractTrade(tradeAddress);\r\n\r\n    bytes32 comments = tradecontract.getComments();\r\n    c = bytes32ToString(comments);\r\n  }\r\n\r\n  //returns the volume of the trade at given index\r\n  function getTradeTotalVolumeInfo(uint index) private returns (uint d, uint c) {\r\n    address tradeAddress = tradeHistory[index]; \r\n    AbstractTrade tradecontract = AbstractTrade(tradeAddress);\r\n\r\n    (d,c) = tradecontract.getTotalVolume();\r\n  }\r\n\r\n  //returns month, day, and year (all uint) representing trade contract deal date\r\n  function getTradeDealDateInfo(uint index) private returns (uint m, uint d, uint y) {\r\n    address tradeAddress = tradeHistory[index]; \r\n    AbstractTrade tradecontract = AbstractTrade(tradeAddress);\r\n\r\n    (m,d,y) = tradecontract.getDealDate();\r\n  }\r\n\r\n  //returns the total price of the trade at given index\r\n  function getTradeTotalPriceInfo(uint index) private returns (uint d, uint c) {\r\n    address tradeAddress = tradeHistory[index]; \r\n    AbstractTrade tradecontract = AbstractTrade(tradeAddress);\r\n\r\n    (d,c) = tradecontract.getTotalPrice();\r\n  }\r\n  \r\n  //returns the trader of the trade at given index\r\n  function getTradeTrader(uint index) private returns (string t) {\r\n    address tradeAddress = tradeHistory[index]; \r\n    AbstractTrade tradecontract = AbstractTrade(tradeAddress);\r\n\r\n    bytes32 trader = tradecontract.getTrader();\r\n    t = bytes32ToString(trader);\r\n  }\r\n\r\n  //returns month, day, and year (all uint) representing trade contract entered on date **Note: could make this automatic**\r\n  function getTradeEnteredOnInfo(uint index) private returns (uint m, uint d, uint y) {\r\n    address tradeAddress = tradeHistory[index]; \r\n    AbstractTrade tradecontract = AbstractTrade(tradeAddress);\r\n\r\n    (m,d,y) = tradecontract.getEnteredOn();\r\n  }\r\n\r\n\r\n/***********************************************************************************************************************\r\n  *  All following \"getByAdd\" functions return the info in readable form from the trade contract, these are needed to     *\r\n  *  convert from bytes32 to string (ie. to read the info). The parameter here is an address, insted of index                                                                *\r\n  *************************************************************************************************************************/\r\n\r\n  //returns the string \"Firm\" if trade is firm, \"Non-Firm\" if not\r\n  function getByAddFirmInfo(address tradeAddress) public returns (string f) {\r\n    AbstractTrade tradecontract = AbstractTrade(tradeAddress);\r\n\r\n    bool firm = tradecontract.getFirm();\r\n    \r\n    if (firm == true) {\r\n      f = \"Firm\";\r\n    } else if (firm == false) {\r\n      f = \"Non-Firm\";\r\n    }\r\n  }\r\n\r\n  //returns month, day, and year (all uint) representing trade contract start date\r\n  function getByAddStartDateInfo(address tradeAddress) public returns (uint m, uint d, uint y) {\r\n    AbstractTrade tradecontract = AbstractTrade(tradeAddress);\r\n\r\n    (m,d,y) = tradecontract.getStartDate();\r\n  }\r\n\r\n  //returns month, day, and year (all uint) representing trade contract end date\r\n  function getByAddEndDateInfo(address tradeAddress)  public returns (uint m, uint d, uint y) {\r\n    AbstractTrade tradecontract = AbstractTrade(tradeAddress);\r\n\r\n    (m,d,y) = tradecontract.getEndDate();\r\n  }\r\n\r\n  //returns the pipe of the trade at given index\r\n  function getByAddPipeInfo(address tradeAddress) public returns (string p) {\r\n    AbstractTrade tradecontract = AbstractTrade(tradeAddress);\r\n\r\n    bytes32 pipe = tradecontract.getPipe();\r\n    p = bytes32ToString(pipe);\r\n  }\r\n\r\n  //returns the counterparty of the trade at given index\r\n  function getByAddCounterPartyInfo(address tradeAddress) public returns (string cp) {\r\n    AbstractTrade tradecontract = AbstractTrade(tradeAddress);\r\n\r\n    bytes32 counterParty = tradecontract.getCounterParty();\r\n    cp = bytes32ToString(counterParty);\r\n  }\r\n\r\n  //returns the counterparty address of the trade at given index\r\n  function getByAddCounterPartyAddressInfo(address tradeAddress) public returns (address cpa) {\r\n    AbstractTrade tradecontract = AbstractTrade(tradeAddress);\r\n\r\n    address counterPartyAddress = tradecontract.getCounterPartyAddress();\r\n    cpa = counterPartyAddress;\r\n  }\r\n\r\n  //returns the party of the trade at given index\r\n  function getByAddPartyInfo(address tradeAddress) public returns (string p) {\r\n    AbstractTrade tradecontract = AbstractTrade(tradeAddress);\r\n\r\n    bytes32 party = tradecontract.getParty();\r\n    p = bytes32ToString(party);\r\n  }\r\n\r\n  //returns the counter party address of the trade at given index\r\n  function getByAddPartyAddressInfo(address tradeAddress) public returns (address pa) {\r\n    AbstractTrade tradecontract = AbstractTrade(tradeAddress);\r\n\r\n    address partyAddress = tradecontract.getPartyAddress();\r\n    pa = partyAddress;\r\n  }\r\n\r\n  //returns the contact of the trade at given index\r\n  function getByAddContactInfo(address tradeAddress) public returns (string c) {\r\n    AbstractTrade tradecontract = AbstractTrade(tradeAddress);\r\n\r\n    bytes32 contact = tradecontract.getContact();\r\n    c = bytes32ToString(contact);\r\n  }\r\n\r\n  //returns the pricing method of the trade at given index\r\n  function getByAddPricingMethodInfo(address tradeAddress) public returns (string pm) {\r\n    AbstractTrade tradecontract = AbstractTrade(tradeAddress);\r\n\r\n    bytes32 pricingMethod = tradecontract.getPricingMethod();\r\n    pm = bytes32ToString(pricingMethod);\r\n  }\r\n\r\n  //returns the trade index of the trade at given index\r\n  function getByAddIndexInfo(address tradeAddress) public returns (uint p, uint s) {\r\n    AbstractTrade tradecontract = AbstractTrade(tradeAddress);\r\n\r\n    (p,s) = tradecontract.getIndex();\r\n  }\r\n\r\n  //returns the trade index of the trade at given index\r\n  function getByAddIndexFactorInfo(address tradeAddress) public returns (uint p, uint s) { \r\n    AbstractTrade tradecontract = AbstractTrade(tradeAddress);\r\n\r\n    (p,s) = tradecontract.getIndexFactor();\r\n  }\r\n\r\n  //returns thefixed price of the trade at given index\r\n  function getByAddFixedPriceInfo(address tradeAddress) public returns (uint d, uint c) {\r\n    AbstractTrade tradecontract = AbstractTrade(tradeAddress);\r\n\r\n    (d,c) = tradecontract.getFixedPrice();\r\n  }\r\n\r\n  //returns the point of the trade at given index\r\n  function getByAddPointInfo(address tradeAddress) public returns (string p) {\r\n    AbstractTrade tradecontract = AbstractTrade(tradeAddress);\r\n\r\n    bytes32 point = tradecontract.getPoint();\r\n    p = bytes32ToString(point);\r\n  }\r\n\r\n  //returns the volume of the trade at given index\r\n  function getByAddVolumeInfo(address tradeAddress) public returns (uint d, uint c) {\r\n    AbstractTrade tradecontract = AbstractTrade(tradeAddress);\r\n\r\n    (d,c) = tradecontract.getVolume();\r\n  }\r\n\r\n  //returns the comments of the trade at given index\r\n  function getByAddComments(address tradeAddress) public returns (string c) {\r\n    AbstractTrade tradecontract = AbstractTrade(tradeAddress);\r\n\r\n    bytes32 comments = tradecontract.getComments();\r\n    c = bytes32ToString(comments);\r\n  }\r\n\r\n  //returns the volume of the trade at given index\r\n  function getByAddTotalVolumeInfo(address tradeAddress) public returns (uint d, uint c) {\r\n    AbstractTrade tradecontract = AbstractTrade(tradeAddress);\r\n\r\n    (d,c) = tradecontract.getTotalVolume();\r\n  }\r\n\r\n  //returns month, day, and year (all uint) representing trade contract deal date\r\n  function getByAddDealDateInfo(address tradeAddress) public returns (uint m, uint d, uint y) {\r\n    AbstractTrade tradecontract = AbstractTrade(tradeAddress);\r\n\r\n    (m,d,y) = tradecontract.getDealDate();\r\n  }\r\n\r\n  //returns the total price of the trade at given index\r\n  function getByAddTotalPriceInfo(address tradeAddress) public returns (uint d, uint c) {\r\n    AbstractTrade tradecontract = AbstractTrade(tradeAddress);\r\n\r\n    (d,c) = tradecontract.getTotalPrice();\r\n  }\r\n  \r\n  //returns the trader of the trade at given index\r\n  function getByAddTrader(address tradeAddress) public returns (string t) {\r\n    AbstractTrade tradecontract = AbstractTrade(tradeAddress);\r\n\r\n    bytes32 trader = tradecontract.getTrader();\r\n    t = bytes32ToString(trader);\r\n  }\r\n\r\n  //returns month, day, and year (all uint) representing trade contract entered on date **Note: could make this automatic**\r\n  function getByAddEnteredOnInfo(address tradeAddress) public returns (uint m, uint d, uint y) {\r\n    AbstractTrade tradecontract = AbstractTrade(tradeAddress);\r\n\r\n    (m,d,y) = tradecontract.getEnteredOn();\r\n  }\r\n}\r\n\r\n/*---------------------------------------------------------------------\r\n                       Contract for Each Purchase Trade\r\n-----------------------------------------------------------------------*/\r\ncontract PurchaseTradeContract is AbstractTrade {\r\n\r\n  //dummy trade constructor for testing \r\n  function PurchaseTradeContract(address p, address cp) AbstractTrade(p, cp) {\r\n    internalType = 0;\r\n  }\r\n\r\n  //function for the counter party to accept the trade, calls main contract to add trade address to array\r\n  function acceptTrade() payable {\r\n    //caller of this function must be the counter party\r\n    require(msg.sender == counterPartyAddress);\r\n    address mainInterfaceAddress = owner; \r\n    CurrentC currentc = CurrentC(mainInterfaceAddress);\r\n\r\n    currentc.acceptTradeMain();\r\n\r\n    //makes contract read only, sending all funds it contains to the counterparty \r\n    selfdestruct(counterPartyAddress);\r\n  }\r\n}\r\n\r\n/*---------------------------------------------------------------------\r\n                       Contract for Each Sell Trade\r\n-----------------------------------------------------------------------*/\r\ncontract SellTradeContract is AbstractTrade {\r\n\r\n  //dummy trade constructor for testing \r\n  function SellTradeContract(address p, address cp) AbstractTrade(p, cp) {\r\n    internalType = 1;\r\n  }\r\n\r\n  //function for the counter party to accept the trade, calls main contract to add trade address to array\r\n  function acceptTrade() payable {\r\n    //caller of this function must be the counter party\r\n    require(msg.sender == counterPartyAddress);\r\n    address mainInterfaceAddress = owner; \r\n    CurrentC currentc = CurrentC(mainInterfaceAddress);\r\n\r\n    currentc.acceptTradeMain();\r\n\r\n    //makes contract read only, sending all funds it contains to the party \r\n    selfdestruct(partyAddress);\r\n  }\r\n}\r\n\r\n",
  "sourcePath": "C:\\Users\\ramir_000\\Desktop\\currentc_kontract\\contracts\\CurrentC.sol",
  "compiler": {
    "name": "solc",
    "version": "0.4.19+commit.c4cbbb05.Emscripten.clang"
  },
  "schemaVersion": "2.0.0",
  "updatedAt": "2018-03-08T22:54:29.653Z"
}